:1008000084312E2CFF3FFF3F7E1484312100911E46
:10081000102C2000911E102C9531092584312C2C90
:100820002100901E1A2C2000901E1A2C94318B242B
:1008300084312C2C2100911C242C2000911C242C70
:100840009431972484312C2C2100111E2C2C200053
:10085000111E2C2C95311F257E1009008C31142C73
:10086000780B08007908003A0319402C013A031963
:10087000432C033A0319412C013A0319422C432C0F
:10088000C52D442CCA2D08002100381E5F2C2200E3
:1008900055080A3EF6000030563DF7000330770257
:1008A000E8300319760203185A2C0A30D5070318CA
:1008B000D60A6E2C0330D600E830D5006E2C0030FE
:1008C000220056021530031955020A30031C6C2C05
:1008D000D5020030D63B6E2CD500D601B7240800D7
:1008E000780B08007908003A0319802C013A0319A3
:1008F000832C033A0319812C013A0319822C832C8F
:10090000B02C842CC32D08002100B81D9F2C220080
:1009100053080A3EF6000030543DF70003307702DA
:10092000E8300319760203189A2C0A30D30703180B
:10093000D40AAE2C0330D400E830D300AE2C003003
:10094000220054021530031953020A30031CAC2C48
:10095000D3020030D43BAE2CD300D40126250800AE
:10096000B7248431B6248431EF240800E72DF50143
:10097000750BD32C7535233E860001308700550852
:10098000C03F5608C13F7535BC3E860087015508FB
:10099000C03F5608C13F7535C63E86005508C03F6A
:1009A0005608C13FE82C7535233E8600013087008C
:1009B0000030C03FC13F7535BC3E86000030870126
:1009C000C03FC13F7535C63E86000030C03FC13FC5
:1009D0000530F50A7502031CB82CAB25080003305E
:1009E0005602213003195502031CF92C210038123C
:1009F000080000305602C8300319550203180800D9
:100A0000210038160800780B08007908003A03190D
:100A1000132D013A0319152D033A0319142D013A28
:100A20000319152D152D162D1D2D08002625843191
:100A30001C25843147250800DE2D0A30D300D4015F
:100A40002100B815262584311C250800F5017535CF
:100A5000233E86000130870022005308C03F54081F
:100A6000C13F7535BC3E860087015308C03F54081E
:100A7000C13F7535C63E86005308C03F5408C13F8C
:100A80000530F50A7502031C272DAB25080003303D
:100A90005402213003195302031C512D2100B811B7
:100AA000080000305402C83003195302031808002C
:100AB0002100B81508002100381C38190800220050
:100AC00020180800200C0339033A031D0800FB011D
:100AD0007B35BC3EF8258431C63ECC2584310318D5
:100AE000782D19268431810741310318810A912D0F
:100AF0007B35C63EF8258431BC3ECC2584310318B5
:100B0000892D19268431810200304131813B7F31AA
:100B1000912D7B35BC3E860087017B35C63E07267E
:100B200084310530FB0A7B02031C682DAB250800CD
:100B3000F5017535F02575358F31BF278431753551
:100B40000E2684310530F50A7502031C992DAB255C
:100B50008431C2250800F4017435C63E8600870141
:100B6000403FF000413FF1007435D13E8600413FE7
:100B70008A00403F0A0005308531F40A74020318E8
:100B80000800AC2D002E47250800C82520140800B9
:100B90000630142EEF2408008600403FF700413F46
:100BA000F8007708043EF9000030783DFA00760836
:100BB0007A02031D08007508790208002200200847
:100BC000F9390238A0000D138C108D130800220093
:100BD0002008F9390438A0000D178C148D13080073
:100BE000233E8600013087000030C03FC13F08002F
:100BF00086008701403FF500413FF6007B35080045
:100C0000F9302200A0050D138C148D170800840004
:100C10008501403F803F413F813F0800C63E86003E
:100C20000030C03FC13F0800A0040D178C108D1785
:100C300008007B35C63E8600043087010800320874
:100C400003192F2EB2013226863121003908031DE7
:100C5000B9033908031D080038108E31232EB20164
:100C6000B20A4A2E2000A001A1019426863120005C
:100C7000A001A1016C2686312000A001A1018026DF
:100C800086312000A001A101A82686312000A00104
:100C9000A101BC2EE8302000A0000330A100942662
:100CA0008631E8302000A0000330A1006C26863198
:100CB000E8302000A0000330A10080268631E83013
:100CC0002000A0000330A100A8268631E8302000D3
:100CD000A0000330A100BC2E7E1C6F2EFD2EFF3025
:100CE0002000A0050330A1052500171E7E2E06302A
:100CF0002000A035A10D890B792E3C2F20003C2F20
:100D00007E1C832E0A2FFF302000A0050330A10592
:100D10002600131E922E06302000A035A10D890B4F
:100D20008D2E242F2000242F7E1C972EF02EFF3096
:100D30002000A0050330A1052500131EA62E0630B5
:100D40002000A035A10D890BA12E342F2000342FB7
:100D50007E1CAB2E172FFF302000A0050330A1050D
:100D60002600171EBA2E06302000A035A10D890BD3
:100D7000B52E2C2F20002C2F7E1CBF2ED92EFF30FD
:100D80002000A0050330A1052108A3002008A2002F
:100D9000A336A20CA336A20C22082C009800200037
:100DA0002008A200A20CA20C220CC0392C00970033
:100DB0000800FF30F0050330F1057108F3007008FA
:100DC000F200F336F20CF336F20C72082C009800A5
:100DD0007008F200F20CF20C720CC0399700080097
:100DE000FF30F0050330F1052500131EFC2E063000
:100DF000F035F10D890BF82E532FFF30F00503303D
:100E0000F1052500171E092F0630F035F10D890B6D
:100E1000052F492FFF30F0050330F1052600131E82
:100E2000162F0630F035F10D890B122F442FFF30AD
:100E3000F0050330F1052600171E232F0630F0358C
:100E4000F10D890B1F2F4E2F210826009200200044
:100E500020082600910008002108260096002000A6
:100E60002008260095000800210825009200200097
:100E70002008250091000800210825009600200088
:100E80002008250095000800710892007008910064
:100E90000800710896007008950008007108960017
:100EA0007008950008007108920070089100080011
:100EB000A60A3C302602031C9C2FA601A50A3C3042
:100EC0002502031C9C2FA501A40A18302402031C30
:100ED0009C2FA401A20AA30A073023020318A3012E
:100EE0002008F500D030F601F5070730F63D9E27C3
:100EF0008731003A03197E2F1D307F2F1C302200CE
:100F0000D8000D302100210203189C2F210803195D
:100F10009C2F2108563E86000130870022080102DE
:100F200003189C2F0130A200A10A0D302102031CDE
:100F30009C2F0130A100A00A311408007508033964
:100F4000031900346430F000F101DA278731BA2741
:100F5000873170087104031D01349030F0000130B6
:100F6000F100DA278731BA27873170087104031935
:100F700001340034700871040319D52FF401F40A08
:100F8000F11BC52FF035F10DBF2F71087302031D42
:100F9000CB2F70087202031CD12F7008F202710867
:100FA000F33BF136F00CF40BC52F7308F100720817
:100FB000F00008007608F3007508F20008008D3193
:100FC000022D8D31342D8C31942C8C31A12C8C310F
:100FD000A92C8C31B42C8C31B92C8C31C22C8C3195
:100FE000CA2C8C31D62C8D31342D8C31E22C8C31A5
:100FF000EE2C8D31342D8C31F32C8C31FD2CFF3FB8
:10100000FF3FFF3FFE0012001E00FE0B03280034CE
:101010006C340634BC3406348034063494340634DC
:10102000A8340634033405347034043430340434C2
:10103000F4341434413454342B344F344B340D34A1
:101040000A34381C272886311F268831362822008A
:10105000200C0339033A0319201C36282100381DBF
:101060003428442388313628472188312100B81C90
:101070000800C72B2000A8002100381800342200E7
:10108000201C211C003404302000280203180034E6
:10109000A9010530A0002808B02288312D3E29077B
:1010A000A7008600013087000A30A000A101293581
:1010B000C63E84008501003FA200013FA3006920D5
:1010C0008831200881000530A90A2902031801345B
:1010D0004928A401A5012008210403198928A60193
:1010E000A60AA11B7628A035A10D7028A435A50D50
:1010F00021082302031D7E2820082202031C8528C4
:101100002008A2022108A33B2414A136A00CA60BA0
:1011100076282508A1002408A0000800282388318B
:1011200007302200A0050130A1052000AB012B35BE
:10113000233E860001308700403FA800413FA900C0
:1011400003302902E93003192802031CB228E830D1
:10115000A8000330A9002B35233E86002808C03F95
:101160002908C13FAA010530A0002A08B022883111
:101170002D3E2B07A8008600013087006530010254
:10118000031CCF280530A0002A08B02288312D3E4C
:101190002B07A800860001308700643081000430EE
:1011A000AA0A2A02031CB3282B08453E86000130F8
:1011B0008700653001022B08031CE328453E8600AA
:1011C000643081002B084E3E860001308700653078
:1011D0000102031CF0282B084E3E8600643081007B
:1011E0000530AB0A2B02031C97281830220041025D
:1011F0000318C1013C3042020318C20118304302F7
:101200000318C3013C3044020318C40118304A02D9
:101210000318CA013C304B020318CB0118304C02B2
:101220000318CC013C304D020318CD0103305402A9
:10123000E93003195302031C22290330D400E8309B
:10124000D3002C29003054020A300319530203182A
:101250002C290A30D300D4013023883103302200F6
:101260005602E93003195502031C3B290330D6000E
:10127000E830D5004529003056020A3003195502DE
:10128000031845290A30D500D6019431E02C2023DB
:101290008831672388319B2288312408EA0023089B
:1012A000E900222388312000E9070318EA0A2523F0
:1012B00088312000E50022004108672388319B2205
:1012C00088312408D7002308D600220042082000D5
:1012D000D6070318D70A220044082000B900BA0133
:1012E00022004308672388319B2288319623883166
:1012F000D8003C08D90022004B082000B900BA01F0
:1013000022004A08672388319B228831962388313E
:10131000DA003C08DB0022004D082000B900BA01C9
:1013200022004C08672388319B228831962388311C
:10133000DC003C08DD00EE016E08423E86008701BD
:101340006E084E3E840001308500000881006E0862
:10135000053EB12388310A3EB12388310F3E423E1B
:1013600086006E084E3E8400000881000530EE0ABB
:101370006E02031C9C29EE016E08013EE60003305C
:10138000E6056E35563E86008701403FEB00413F43
:10139000EC006635563E8600403FE700413FE800DE
:1013A0006C086802031DD6296B0867026C08031CD1
:1013B000F1296A02031DDE296B086902031C942AC5
:1013C00068086A02031DE629670869020318942A5F
:1013D0006808BA2388316B086902A0006C086A3B70
:1013E0001A2A6A02031DF6296B08690268080318A5
:1013F000012A6A02031DFE29670869020318942A5C
:101400006808BA238831A030DF070530E03D6C085A
:101410006A02031D0D2A6B0869026B080318EC2988
:101420006902B9006C086A3BBA003908A03EA00006
:1014300005303A3DA1003C30A201A301A400A50162
:10144000A601A701BC2288312308E4002208E3009A
:101450002108E2002008E1006508E10701300318D7
:10146000E2070318E3070318E407ED010530A000C5
:101470006608B0228831862388316E08B022883110
:101480008E2388310530A000031C6A2A6608B0222A
:101490008831862388316E08B02288318E238831C6
:1014A000C2238831B02288317A2388319B22883147
:1014B0006E2388319B2288314B238831BC228831AE
:1014C000A8238831E12288312C083A07C0002D0872
:1014D0003B3D8D2A6E08B02288318623883166080C
:1014E000B02288318E238831C2238831B0228831DE
:1014F0007A2388319B2288316E2388319B22883160
:101500004B238831BC228831A8238831E1228831DD
:101510002C083A02C0002D083B3B9E238831053041
:10152000ED0A6D02031C362A0430EE0A6E02031C1B
:10153000BC298E31982EA701A801231CA32A2508B7
:10154000A7072608A83DA535A60DA436A30C230899
:101550002404031D9D2A2808A4002708A3000800CE
:10156000A200A10120082218A107A035A236220856
:10157000031DB22A21080800A801A901AA01AB0194
:10158000201CCA2A2408A8072508A93D2608AA3D28
:101590002708AB3DA435A50DA60DA70DA336A20CBB
:1015A000A10CA00C2308220421042004031DC02A3E
:1015B0002B08A3002A08A2002908A1002808A000DF
:1015C0000800B401B501B601B7012F082E042D049F
:1015D0002C040319172BB801B80AAF1BF42AAC3539
:1015E000AD0DAE0DAF0DEC2AB435B50DB60DB70D82
:1015F0002F083302031D062B2E083202031D062B73
:101600002D083102031D062B2C083002031C112B60
:101610002C08B0022D08B13B2E08B23B2F08B33B7B
:101620003414AF36AE0CAD0CAC0CB80BF42A370842
:10163000AF003608AE003508AD003408AC00080035
:1016400024080800210025080800210026080800B9
:1016500020302000A3003730A40010309531362D03
:1016600003305402213003195302031C3A2B21008A
:10167000B811080000305402C8300319530203188F
:1016800008002100B81508003A08031DBA033A08FB
:101690000319381108002308BC002408BD00BE014E
:1016A000BF013F08AF003E08AE003D08AD003C085A
:1016B000AC005E08A000A101A201A3016408A7007C
:1016C0006308A6006208A5006108A40008002000C5
:1016D000A3003C30A401A500A60108002308BA001D
:1016E0002408BB000630A500A6016008A4005F081E
:1016F000A3000800423E6D07B9008600870101087B
:10170000A3000A30A401A500A6010800423E6D070F
:10171000B900860005308701A0000800423E6D0731
:10172000BA00840085010008010208003908230777
:10173000BB003A08243DBC003B080800C1006D35E1
:10174000C63E860087014008C03F4108C13F0800EF
:101750002308B3002208B2002108B1002008B0001D
:101760000800423E86006E08453E84000008810065
:101770006E080800E0006708DF006B08DF026C08F5
:10178000E03B0800DE000530A0006E0808003B08C2
:10179000031DBB033B08031D080020302000A600EA
:1017A0003730A7001030D7232100B8100800A90057
:1017B000AA0127082A02031808002A082607A800F9
:1017C0008600013087000108A40029082A07EB23BE
:1017D0008831AA0AD92BA500A0007030A101A10769
:1017E0002408A200F32B00308B1B0130A30021083A
:1017F00031009200200020083100910020002208D2
:1018000031009300151715158B1355309600AA302B
:101810009600951495180A2C15112000230C031C12
:101820008B1303188B17080008308400883085005C
:10183000D1308600003087001930883102208C3189
:10184000A330840094308500573086000130870033
:101850000C30883102208C31CF30840094308500E8
:10186000A0308600013087001130883102208C3191
:10187000A030FD01EF01840000308500313094314B
:1018800085248C312030840001308500373094313C
:1018900085248C3120308400023085004030943122
:1018A00085248C31A0308400023085004030943192
:1018B00085248C317E1020005D2C963149268C3198
:1018C000973112278C31953190258C318B170B175E
:1018D000F0258C31E8278C31B3278C31B6278C3139
:1018E0006400E2258C31003A0319782C9A278C3158
:1018F000E9258C31003A0319812C8A248C31A927DF
:101900008C31F4258C31003A0319702C8831212058
:101910008C31702C683024002006031D0800210043
:101920003708031D0800292D04307D06031D08001B
:1019300022080E268C31003A03190800B0258C319C
:10194000472D04307D06031D08002208FA258C313E
:101950009B2C0D307D06031D080022304D278C3155
:10196000003A03190800B02D03307D06031D08005E
:10197000A02C04307D06031D0800220888313A207F
:101980008C319B2C15307D06031D0800223030273A
:101990008C319B2C05307D06031D08002308200098
:1019A000A90024002208EB268C31B02C05307D06DE
:1019B000031D080023082000A90024002208C325D5
:1019C0008C31B02C0D307D06031D0800223095317E
:1019D0005E258C31003A03190800F72F03307D068D
:1019E000031D0800FC2F0A307D06031D080022306D
:1019F00088278C31BF258C31A02C03307D06031D38
:101A00000800F22F05307D06031D08001F3031004D
:101A10009200FF3091009430950055309600AA3026
:101A2000960095140000000031009518142D151132
:101A300035258C3102302000AC00F330AB00B030E3
:101A4000890B202DAB0B202DAC0B202D00000100AD
:101A50000800240021088400103004020318080044
:101A600087310435DF3E82000800A4258C316830C0
:101A700082258C31003082258C31003082258C31DA
:101A8000003082258C31683082258C31B52D2000C4
:101A9000A201A4258C31683082258C31A206053044
:101AA00082258C31A20622002008013982258C3142
:101AB000A2062200201C6D2D12302000A100A301DF
:101AC0002108230203187E2D2308413EE3278C3191
:101AD00082258C31A206A30A602D20302000A100AF
:101AE000A3012108230203187E2D2308213EE327AA
:101AF0008C3182258C31A206A30A712D2208822501
:101B00008C31B52D2000A00021006A080319842D16
:101B1000111A8F2D2000200823009A009F2D1112EA
:101B20002F08A03E86000230870020002008810098
:101B300021004030AF0A2F020318AF01EA03210051
:101B4000111620002008080022008E100530200009
:101B5000A0002630890BAA2DA00BAA2D000008009A
:101B60002100B8140330BB00080023009E1CB52DD3
:101B7000A0300032890BB92D22008E1408000630E7
:101B800022008631142E2000AA00210038180034CB
:101B90002200201C211C0034053020002A020318DA
:101BA00000342A35233EA0000130A100DE278C310D
:101BB000C4268C312A35BC3EA000A101DE278C3121
:101BC000C426013420000C19003422008E18013480
:101BD000003420000C1D003422008E1C013400341F
:101BE00088318E208C31232E2100311C00340130AD
:101BF000311008002000A100210038180034220014
:101C0000201800342000210803190A2E2200211474
:101C1000B026013422002110492601342000A10001
:101C20002100381C381900342000210803191B2E0C
:101C300022002014013422002010211C212EB02665
:101C40000134492601342200200C03392000A6006B
:101C50000319342E013A0319372E033A03193C2E87
:101C6000013A0319412E482E49268631002E582666
:101C70008C3154268C31B02E70268C3156268C3106
:101C80003B2EBF258C312018080021183B2E492EF1
:101C900008002000A0012035BF278C310530A00AA4
:101CA0002002031808004B2E8531DE2D8531E72DEB
:101CB0002000A5012535D9278C31B8278C31253551
:101CC000BC3E86008701B8278C312535C63E86008C
:101CD000B8278C310530A50A2502031C5A2E982EF0
:101CE0002000A501250B872E2535D9278C31C62745
:101CF0008C3120002535BC3E86008701C6278C31FB
:101D000020002535C63E8600C6278C31912E25350C
:101D10008531F0258C312535BF27253586310E26B6
:101D20008C3120000530A50A2502031C722E982E46
:101D3000A4012435C63E86008701403FA000413FF4
:101D4000A1002435D13E8600413F8A00403F0A0071
:101D50008E3120000530A40A240203180800992EB1
:101D60002000A0012035233E860001308700203569
:101D7000BC3E863107268C310530A00A20020318AC
:101D80000800B22E8631002E200886002108870028
:101D9000403FA500413FA60022082307A7002408D2
:101DA0000318240AA80026082802031DD92E250896
:101DB000270220088600210887000318E62E220843
:101DC00081024131031C81037F3108002308C03F99
:101DD0002408C13F08002000AA0021003818003460
:101DE0002200201C211C0034053020002A02031888
:101DF00000342A35233EA0000130A100CC278C31CD
:101E00000A278C312A35BC3EA000A101CC278C3199
:101E10000A2701342008860021088700403FA500DA
:101E2000413FA60022082507A70026080318260A16
:101E3000A80024082802031D1F2F230827022008BA
:101E400086002108870003182B2F220881074131C3
:101E50000318810A08002308C03F2408C13F080076
:101E60002000A2002100381C381900342200201C58
:101E7000003412302000A100A3012108230203181E
:101E800001342308413E86000130870023082207E1
:101E9000A000D3278C31A30A3D2F2000A2002100EF
:101EA000381800342200211820180034A201200024
:101EB000A50125352207A000200A860002308700F0
:101EC00025352207A1008400023085000008A40007
:101ED0000108A30003302402E93003192302031888
:101EE000822F2535233E8600013087002308C03F1E
:101EF0002408C13F2535BC3E860087012308C03F2A
:101F00002408C13F0530A50A250203180134592FC2
:101F10002000A100A2012208A03E8600870122081D
:101F20002107A000D3278C310730A20A2202031810
:101F300008008B2FFD012100B70105302000A00013
:101F40002630890BA12FA00BA12F000022008E109C
:101F500008008530890BAA2F000022008E14FD0195
:101F60002100B70108002000971708001F1508007E
:101F700022005308C03F5408C13F20000800BC3E67
:101F8000860000308701C03FC13F0800220055088D
:101F9000C03F5608C13F08002908A200E830A3004E
:101FA0000330A4000800840002308500000881008E
:101FB0000800233E86000130870008002908A2009F
:101FC000A301A40108008600013087000108080071
:101FD0002100A601A501A401A3010130A200A100D6
:101FE000A0010800210038140330B90008002100C6
:101FF00038150330BA00080021003811BA01080072
:10290000FF3FFF3FFF3FFF3FFF3F6400800101317A
:10291000890B862C00349012210029082A040319FF
:1029200008002A088A0029080A009431080091103A
:102930002100270828040319080028088A0027080E
:102940000A00943108001F341C341F341E341F3415
:102950001E341F341F341E341F341E341F347D08B0
:10296000203E86000230870070088100FD0A700852
:10297000B70640307D020318FD0108007A08F80010
:102980007B08F9002200200C03390907DB3E860092
:102990008701413F8A00403F0A00943108003334E8
:1029A00030343334313433343334333433343334F4
:1029B000303433343134333430343334323400341B
:1029C00003305602213003195502031CEA2C210062
:1029D0003812080000305602C83003195502031897
:1029E0000800210038160800780B0800FA2C853101
:1029F000982508007908003A0319F72C013A0319C1
:102A0000082D033A0319F92C013A0319082D082D52
:102A1000080023001D190E2D9D1C102D9D139D17C0
:102A20001908F10021002B082C0403190800710873
:102A3000F0002C088A002B080A009531080040306D
:102A400021006A020318342D3008A03E86000230AF
:102A50008700010823009A0021004030B00A3002AC
:102A60000318B001EA0A080011120800A600A70125
:102A7000240827020318080027082307A50086005A
:102A800001308700260827074A259531810020005C
:102A9000A70A382DA200A0007030A101A107502D77
:102AA0002108310092002000200831009100151704
:102AB0001514000000003100130808002000A900D0
:102AC0002100381800342200201C00342000AA0104
:102AD0002A352907A500250A8600023087002A35F5
:102AE0002907A6008400023085000008A80001081C
:102AF000A70003302802E930031927020318882DA4
:102B00002A35C63E860087012708C03F2808C13FF6
:102B10000530AA0A2A02031C682D8E31982601343A
:102B2000BE302000A0001430A100AB2595315830F4
:102B30002000A0000730A100B3259531CB30200044
:102B4000A0001530A100C3259531AF302000A000B2
:102B50001430A100BB2D21082100AE002000200868
:102B60002100AD00080021082100AA002000200853
:102B70002100A900080021082100AC002000200845
:102B80002100AB00080021082100A8002000200837
:102B90002100A7000800B60A36080339031D080003
:102BA00036080F39031DD52DD72585315B2D3B26E2
:102BB0009531FC007C0803190A2E7C0820006F0662
:102BC000031D352E21002030B30A3306031DF62DD8
:102BD0002D082E040319372E7C08FA00FB01FB0A8E
:102BE0002E088A002D080A009531372E2130330235
:102BF000031C372E2030B3002D082E040319372E66
:102C00007C08FA000230FB002E088A002D080A001A
:102C10009631372E20006F080319352E2030210001
:102C20003302031C232E2D082E040319352E2000F9
:102C30006F08FA000330FB0021002E088A002D08DF
:102C40000A009631352E03303302031C352E2D0831
:102C50002E040319352E20006F08FA00FB01210015
:102C60002E088A002D080A0096312100B3017C0845
:102C70002000EF00080020000E09F0000130F005F0
:102C8000700821003406B5007008B505B40035069B
:102C90000800662696315C269631B0269631BA2613
:102CA0009631C3269631CE269631D9269631E32623
:102CB000963101279631ED2E6030320099009B014C
:102CC00048309D0006309F009E010800023022001F
:102CD0008C00D0308D008E01343021008C008D01AD
:102CE00005308E0023008E018D018C0124008D01A2
:102CF00004308C0001308E0025008C018D018E0186
:102D000000308B1B01302000A0008B130C27963164
:102D10000F102408E0391238A4003D001C08E039E7
:102D200014389C002508E0390C38A5002408E03947
:102D30000D38A4002308E0390E38A3002608E03936
:102D40000F38A6002708E0390238A7000C27963173
:102D50000F142000201CAE2E8B1708008B130800C8
:102D60008F3025009300920191011F08FC39013832
:102D70009F0008008F309700960195011F08F339D6
:102D800004389F0008008F302600930092019101C3
:102D900025001F08CF3910389F0008008F3026000B
:102DA00097009601950125001F083F3940389F0084
:102DB00008002C00980197011F08FC3901389F007A
:102DC000803099000800783020009F00F9309E0084
:102DD0009D019110210091140800911211120830E8
:102DE00023009F0090309D0024309E00A0309B0067
:102DF00001309C00210091164030B001AF01EA0083
:102E0000080020009701D7309800FF309600950108
:102E1000901221009016080055303C008F00AA3017
:102E20008F00080022008E108D12D0302000C500C7
:102E3000C930890B192FC50B192F003222008D16AE
:102E400005302000C600DF30C500BB30890B262FBF
:102E5000C50B262FC60B262F0032BE279731003A0E
:102E6000031D422FD0302000C500C930890B362FFA
:102E7000C50B362F003200302000A1009830A20090
:102E80006E279731D0302000C500C930890B462FFE
:102E9000C50B462F003244302000A1009830A2001C
:102EA0006E279731D0302000C500C930890B562FCE
:102EB000C50B562F003235302000A1009830A200FB
:102EC0006E27973168302000C500E430890B662FEB
:102ED000C50B662F000022008E140800E330860028
:102EE0000030870024308400003085000730A300C4
:102EF00016001A00A30B782FAE01AB01AC01230022
:102F000019082000210884002208850012000319F6
:102F1000B92F210884002208850000088D31822500
:102F20009731A10A0319A20A812F911EAA2F23000B
:102F30009D1C9C2F1D121D1619082000AD002E0887
:102F4000243E8600870101082D06031DA92FAE0A25
:102F5000AA2FAE018530890BAB2F00002000AB0AF1
:102F60000319AC0A03302C02E93003192B020318B1
:102F7000080007302E0203180800952FA0308600A5
:102F8000013087003030840000308500113020008F
:102F9000AF0016001A00AF0BC92F2230C401C101C7
:102FA000C201A1009830A2006E279731FA2797310D
:102FB00003190134911EEA2F23009D1CE12F1D12DD
:102FC0001D1619082000C300FA2797314306031D78
:102FD0000034C40A8530890BEB2F00002000C10AA1
:102FE0000319C20A03304202E930031941020318EF
:102FF0000034D62F4408303E8600870101080800BF
:10300000413454342B344134443456345F344D34D9
:10301000463452345F345334503443343D343334C3
:10302000303433343134333433343334333433346D
:1030300030343334313433343034333432340D3487
:103040000A340034413454342B344134443456343B
:103050005F344D34463452345F3453345034433447
:103060003D343F340D340A340034413454342B346D
:103070004D344F34443445343D3444344134543475
:1030800041340D340A340034413454342B34533435
:10309000453454343D3431340D340A340034FF3F68
:00000001FF
