:1000000080310A28FF3FFF3F7E1480318431042C69
:100010007E10090080310C284130A9005430AA001C
:100020002B30AB004F30AC004B30AD000D30AE008C
:100030000A30AF00A030F901840000308500443060
:100040008231E42280317E10200026282920803150
:100050000A280D218031013A031D33285D228031A9
:100060009120803139201F303F00ED008431002C79
:10007000080020000430A501A400A301A101A201F1
:10008000640023009E1C41282B2180312000911EFA
:100090007D28FB2080312000A0002508A03E86009E
:1000A0008701200881000230A50A2506031D682863
:1000B000023021002006031D612821082000A4072A
:1000C000682868302006031D682805302000A40039
:1000D000200024082502031C7928472180312000B4
:1000E000A400F300A0301A21803120000430A501C3
:1000F000A400A101A201A301A30A230803198D28CA
:10010000A10A0319A20A03302202E93003192102CD
:10011000031C4028A101A201A3010430A501A400F1
:10012000402822008D120730F6007D30890B96287A
:10013000F60B9628000022008D164E30F600EB30AC
:10014000890BA028F60BA0280000D930F3008230DC
:10015000F400C22080310730F6007D30890BAE28D4
:10016000F60BAE280000CA30F3008230F400C22043
:1001700080310730F6007D30890BBC28F60BBC2897
:1001800000000800293086000030870020308400FD
:10019000003085000730F50016001A00F50BCC285A
:1001A0002000A80123001908730884007408850042
:1001B00012000319F52873088400740885000008EC
:1001C00005218031F30A0319F40AD428FB20803179
:1001D0002000A7002808203E860087010108270686
:1001E000031DF428A80AF528A801073020002802DA
:1001F00003180800E6282000911EFB2823009D1C00
:1002000003291D121D1619080800F2002000111EF6
:100210000629720823009A000800B4228031803039
:100220009500151400000000553031001306031D21
:1002300001340034F400F303730A03192729740806
:1002400086008701010805218031F40A1B2923005B
:100250009E18080027297903031D0800B422803165
:1002600084309500553093009600AA30960095147E
:1002700000000000310095183A2915112030F200D5
:100280002A30890B4129F20B412901000800642919
:100290004C2280315F29F22180315F29B8218031E1
:1002A0005F297B2180315F290130F900A401A40A74
:1002B00005305D290530A401A40AA101A10AF800B6
:1002C0007929FF30A400582921002008003A031999
:1002D0004829023A03194B29013A03194E290A3ACF
:1002E00003195129033A03195429623A03195A2967
:1002F00061297808080021002508F5002408F40089
:1003000004302302003003192202031C8E292030FE
:100310007502003003197402031C8F29AF2A9D2235
:10032000803180309500F601F70121002308F300A9
:100330002208F20075087302031DA02974087202D6
:100340000318B22931001514000000003100130811
:10035000F6071408F73D910A0319920AF20A0319E5
:10036000F30A9A2976082100A6007708A700083426
:10037000C6228031031922020318C0292100AF2AA6
:10038000BA22803121009D228031F401F501210043
:100390002108F200F30173087502031DD1297208C8
:1003A00074020318ED2931001108F2007F301205A4
:1003B000F300203073020030031972020318BE29C3
:1003C000943095004322803120303100910703188A
:1003D000920AF40A0319F50AC72931009518ED2984
:1003E0001511A52AC622803103192202031C062AF0
:1003F00021362207F20023080318230AF3002030D5
:100400007302013003197202031C072AAF2A9D22CE
:100410008031A4309500BA228031F40121002108F6
:10042000740203183E2A1F3031001105F2001F3AF2
:100430000319272A21002108FE3EF200FF3003188D
:100440000030F300740872067304031D292A31007A
:1004500095127408A43E86008701010831009300BC
:100460007408A53E860001089400432280313100C3
:10047000910A0319920AF40AF40A0E2A3100951817
:100480003E2A1511A52A640070089600710896008E
:10049000951400000000080008302100A10004307D
:1004A000A401A501A50AA601A700FF30A8001F30DE
:1004B000A9002030AA00AB000C34622280319522C2
:1004C00080318A2A22008C0110308D008E01373055
:1004D00021008C00C0308D0005308E0023008E017D
:1004E0008D018C0124008D0104308C008E012500CB
:1004F0008C018D018E01C02280310F102408E0395B
:100500001238A4003D001C08E03914389C00C022B9
:100510000F140800083023009F0090309D00243005
:100520009E0019309B009C01080060303200990049
:100530009B019D019F019E0108002308310092004C
:10054000210022083100910008002000F001F10193
:1005500021000530A101A10AA401A40A0800FE306F
:10056000A101A10AA40005341F3031009200FF3020
:100570009100080055302000F000AA30F10008007A
:1005800055303C008F00AA308F0008000430210055
:1005900023020034413454342B344D344F3444342A
:1005A00045343D3444344134543441340D340A34F8
:1005B0000034413454342B345334453454343D34B2
:1005C00031340D340A340034640080010131890B68
:1005D000E52A0034FF3FFF3FFF3FFF3FFF3FFF3F64
:0408000084311B2CF8
:100808007E1484312000911E0D2C9531E825843109
:10081800192C901E142C90129631AB268431192C69
:10082800911C192C9110893178217E1009008C3186
:10083800032C1030AE268431293086000030870022
:1008480020308400013085003730E10016001A009E
:10085800E10B2A2C07302200A0050130A105200059
:10086800E4016435233E860001308700403FE10003
:10087800413FE20003306202E93003196102031CC0
:10088800502CE830E1000330E2006435233E860056
:100898006108C03F6208C13FE3010530A00063085A
:1008A8003E2684312D3E6407E10080278431031CF5
:1008B8006A2C0530A00063083E2684312D3E64076B
:1008C800E100860001308700643081000430E30ACB
:1008D8006302031C512C6408453E80278431640858
:1008E800031C7B2C453E86006430810064084E3E24
:1008F80080278431031C852C64084E3E86006430B2
:1009080081000530E40A6402031C352C18302200EB
:1009180041020318C1013C3042020318C2011830D9
:1009280043020318C3013C3044020318C4011830C1
:100938004A020318CA013C304B020318CB01183095
:100948004C020318CC013C304D020318CD01033092
:100958005402E93003195302031CB62C8B3153237C
:100968008431C02C003054020A3003195302031892
:10097800C02C0A30D300D401E42684310330560257
:10098800E93003195502031CCD2C8B3158238431CF
:10099800D72C003056020A30031955020318D72CF9
:1009A8000A30D500D601FD2E21005C0824278431A9
:1009B800292684312408EA002308E90021005D087B
:1009C8002000E9070318EA0A21005E082000E50074
:1009D8002200410824278431292684312408D7009D
:1009E8002308D600220042082000D6070318D70A99
:1009F800220044082000B900BA0122004308242735
:100A080084312926843143278431D8003C08D90011
:100A180022004B082000B900BA0122004A08242706
:100A280084312926843143278431DA003C08DB00ED
:100A380022004D082000B900BA0122004C082427E2
:100A480084312926843143278431DC003C08DD00C9
:100A5800EE016E08423E860087016E084E3ED92799
:100A680084316E08053E6F2784310A3E6F27843132
:100A78000F3E423E86006E084E3E8400000881000C
:100A88000530EE0A6E02031C2D2DEE016E08013EA4
:100A9800E6000330E6056E35563E86008701403F86
:100AA800EB00413FEC006635563E8600403FE700CC
:100AB800413FE8006C086802031D642D6B0867025B
:100AC8006C08031C7F2D6A02031D6C2D6B086902DC
:100AD800031C222E68086A02031D742D6708690228
:100AE8000318222E6808782784316B086902A00051
:100AF8006C086A3BA82D6A02031D842D6B086902E5
:100B0800680803188F2D6A02031D8C2D6708690277
:100B18000318222E680878278431A030DF070530B3
:100B2800E03D6C086A02031D9B2D6B0869026B0887
:100B380003187A2D6902B9006C086A3BBA003908B3
:100B4800A03EA00005303A3DA1003C30A201A3011F
:100B5800A400A501A601A7014A2684312308E400C0
:100B68002208E3002108E2002008E1006508E10707
:100B780001300318E2070318E3070318E407ED013F
:100B88000530A00066083E2684314B2784316E0864
:100B98003E268431532784310530A000031CF82DEC
:100BA80066083E2684314B2784316E083E26843100
:100BB80053278431862784313E2684313727843170
:100BC800292684312B27843129268431082784312A
:100BD8004A268431662784316F2684312C083A07E7
:100BE800C0002D083B3D1B2E6E083E2684314B2746
:100BF800843166083E268431532784318627843120
:100C08003E26843137278431292684312B278431A5
:100C180029268431082784314A268431662784317D
:100C28006F2684312C083A02C0002D083B3B5B2715
:100C380084310530ED0A6D02031CC42D0430EE0A20
:100C48006E02031C4A2D8831CD28A701A801231C58
:100C5800312E2508A7072608A83DA535A60DA436D8
:100C6800A30C23082404031D2B2E2808A4002708FE
:100C7800A3000800A200A10120082218A107A0359E
:100C8800A2362208031D402E21080800A801A90148
:100C9800AA01AB01201C582E2408A8072508A93D45
:100CA8002608AA3D2708AB3DA435A50DA60DA70D1E
:100CB800A336A20CA10CA00C2308220421042004B2
:100CC800031D4E2E2B08A3002A08A2002908A10004
:100CD8002808A0000800B401B501B601B7012F0823
:100CE8002E042D042C040319A52EB801B80AAF1B35
:100CF800822EAC35AD0DAE0DAF0D7A2EB435B50DD7
:100D0800B60DB70D2F083302031D942E2E0832029C
:100D1800031D942E2D083102031D942E2C08300239
:100D2800031C9F2E2C08B0022D08B13B2E08B23BA5
:100D38002F08B33B3414AF36AE0CAD0CAC0CB80B6B
:100D4800822E3708AF003608AE003508AD003408EB
:100D5800AC0008002100A000A1302000A40037301A
:100D6800A50021002008C8268431A1308600003063
:100D7800870029308400003085003730E0001600F5
:100D88001A00E00BC32E08002000A700A8012508C0
:100D980028020318080028082407A60086008701EF
:100DA80027082807DB2684318100A80ACB2EA20059
:100DB800A0007030A101A107EF262000A3000800C1
:100DC80003305402213003195302031CED2E57122D
:100DD80008008B31152B21083100920020002008D3
:100DE8003100910015171514000000003100130898
:100DF800080003305602213003195502031C062F40
:100E0800D71208008B311D2B2308BC002408BD0015
:100E1800BE01BF013F08AF003E08AE003D08AD006F
:100E28003C08AC005E08A000A101A201A30164086F
:100E3800A7006308A6006208A5006108A4000800CE
:100E48002000A3003C30A401A500A6010800230847
:100E5800BA002408BB000630A500A6016008A4005B
:100E68005F08A3000800423E6D07B90086008701AD
:100E78000108A3000A30A401A500A601080039084A
:100E88002307BB003A08243DBC003B080800423E4B
:100E98006D07B900860005308701A0000800423EB2
:100EA8006D07BA0084008501000801020800C1002E
:100EB8006D35653E8600013087004008C03F410817
:100EC800C13F08002308B3002208B2002108B1007E
:100ED8002008B0000800423E86006E08453E8400A7
:100EE800000881006E080800E0006708DF006B0852
:100EF800DF026C08E03B080086000130870065309F
:100F080001020800DE000530A0006E080800683005
:100F18002400A0000530A100003022002018013074
:100F28002400A2002200201CAC2F12302000A800B0
:100F3800A901280829020318BF2F2908233E860083
:100F4800023087002908413ED9278431A90A9D2FFC
:100F580020302000A800A901280829020318BF2F63
:100F68002908233E8600023087002908213ED92718
:100F78008431A90AB02F2030A0000230A10028082F
:100F8800033EA2008E31B726A7002808233E86001C
:100F980002308700270881002030A1000230A2001B
:100FA8002808043EA3008F31112F840001308500EA
:100FB8000008810008008E31792E8E31B62E8C31D2
:100FC8009A2C8C31BE2C8C31DA2C8D31092D8D3137
:100FD800172D8D314B2D8D31692D8D31B52D8E31DC
:100FE800B62E8D31F32D8E312B2E8E31B62E8E31BD
:060FF8003C2E8E31672E35
:1010020033343034333431343334333433343234AC
:10101200333430343334313433343034333432349F
:1010220000341F341C341F341E341F341E341F344A
:101032001F341E341F341E341F342100600803196C
:101042002E28E0013120883122005808031DD803E0
:101052005808031D080057105F28E001E00A4428E1
:101062002000A001A101372188312000A001A101A7
:10107200FE2088312000A001A101472188312000F3
:10108200A001A1010E29E8302000A0000330A10038
:1010920037218831E8302000A0000330A100FE2073
:1010A2008831E8302000A0000330A10047218831B8
:1010B200E8302000A0000330A1000E29200C0339E3
:1010C2002000A50003196F28013A03197328033A77
:1010D20003197828013A03197D2898288E31CB26E6
:1010E2008831352B9B20883199208E31DB2EB1201F
:1010F20088319A20883176288F313A278831201812
:1011020008002000A6012635233E86000130870014
:1011120026355B3E8F318C2788310530A60A2602A0
:10112200031C84282200211876288E31CB2E080039
:101132003A2B3F2B2000A4012435233E0C23883177
:1011420020002435653E860022005308C03F540823
:10115200C13F20000530A40A2402031C9D28CD288B
:101162002000A401240BC02824350223883120004A
:101172002435653E860022004E238831C628243558
:10118200EF22883124352523883120000530A40A36
:101192002402031CB328CD28220066082000A100E7
:1011A200220065082000A0001E2188312200680864
:1011B2002000A100220067082000A000FE20883144
:1011C20022006A082000A100220069082000A00075
:1011D2000E21883122006C082000A10022006B0839
:1011E2002000A0003721883122006E082000A100D3
:1011F20022006D082000A0004729FF30A00503301F
:10120200A1052500171E0C2906302000A035A10DCE
:10121200890B0729682920006829FF30A0050330BF
:10122200A1052600171E1C2906302000A035A10D9D
:10123200890B1729582920005829FF30A0050330AF
:10124200A1052108A3002008A200A336A20CA33600
:10125200A20C22082C00980020002008A200A20C58
:10126200A20C220CC0392C0097000800FF30A00508
:101272000330A1052500131E452906302000A035A4
:10128200A10D890B4029602920006029FF30A005AB
:101292000330A1052600131E552906302000A03573
:1012A200A10D890B5029702920007029352B2108A6
:1012B200260096002000200826009500080021083C
:1012C2002500920020002008250091000800210836
:1012D200250096002000200825009500080021081E
:1012E200260092002000200826009100080021001C
:1012F200E30A63080339031D080063080F39031D5D
:101302008A29662388317C0803198A299621883123
:10131200FC012200571CD719080020180800200CD5
:101322000339033A031D0800AF2B7C0BD02922009E
:10133200F7228831200C0339F700C229F8017835E9
:10134200EF2288317835252388310530F80A780272
:10135200031CA029752288319A228831462A482204
:1013620088315B228831D9228831462A5C22883131
:1013720099228831E4228831462A98228831201421
:10138200462A7708003A03199F29013A0319B0291E
:10139200033A0319B729013A0319BE29462A213013
:1013A2007C06031DDD2961238831013A0319B42922
:1013B200033A0319BB29462A41307C06031D462AFB
:1013C200612388313B2A0A30D300D401F7228831C5
:1013D2005716482288315B228831462A571E042A32
:1013E20053080A3EF5000030543D5D23883103194D
:1013F20075020318012A0A30D3070318D40A122AE5
:1014020053238831122A0030540215300319530233
:101412000A30031C102AD3020030D43B122AD30014
:10142200D40148228831462AD71E2A2A55080A3E64
:10143200F5000030563D5D2388310319750203180B
:10144200272A0A30D5070318D60A382A58238831A2
:10145200382A003056021530031955020A30031C8F
:10146200362AD5020030D63B382AD500D6015C2276
:101472008831462A7708003A0319E429013A031908
:10148200EF29033A0319152A462A8F31C02FF40196
:101492007435233E0C2388317435653E860053082B
:1014A200C03F5408C13F0530F40A7402031C492AA4
:1014B200752208003A2BF401740B682A7435022352
:1014C20088317435653E86004E2388316E2A743524
:1014D200EF2288317435252388310530F40A7402ED
:1014E200031C5D2A7522080022006608F1006508C7
:1014F200F000C222883122006808F1006708F0007B
:10150200A822883122006A08F1006908F000B52299
:10151200883122006C08F1006B08F0009B228831B0
:1015220022006E08F1006D08F0009D230800492B8F
:101532003F2B352BFF30F0050330F1052500131E3C
:10154200A72A0630F035F10D890BA32A302BFF3084
:10155200F0050330F1052500171EB42A0630F035D8
:10156200F10D890BB02A442BFF30F0050330F10551
:101572002600171EC12A0630F035F10D890BBD2A4F
:101582002B2BFF30F0050330F1057108F3007008D2
:10159200F200F336F20CF336F20C72082C009800CB
:1015A2007008F200F20CF20C720CC03997000800BD
:1015B200033022005402213003195302031CE32A90
:1015C20057120800152B033022005602213003194E
:1015D2005502031CEE2AD71208001D2B233E86005B
:1015E200013087000030C03FC13F0800200C0339A2
:1015F200F500F50AF50D20087506F9397506A00003
:101602000800233E86000130870022005508C03FB3
:101612005608C13F080086000130870022005308A7
:10162200C03F5408C13F080000305402C8300319BB
:101632005302031C5716080000305602C830031923
:101642005502031CD7160800653E86000030C03FD5
:10165200C13F0800710896007008950008007108E3
:10166200920070089100080022000D138C148D174F
:10167200080022000D138C108D13080022000D1794
:101682008C148D13080071089600700895000800EC
:1016920022000D178C108D1708005508C03F560800
:1016A200C13F08000330D400E830D3000800033003
:1016B200D600E830D5000800F60003307602E834A0
:1016C2002200200C0339F70008008F238831F10033
:1016D200710803197B2B71087D06031D8B2B1A30B1
:1016E200FB0A7B02031C8C2B1930FB00710840386B
:1016F200FC008C2B7D0803198B2B19307B02031CF9
:10170200852B7D0820388A2B03307B02031C8B2B10
:101712007D08FC00FB017108FD00080020000E0995
:10172200F0000130F005700821006106E200700847
:10173200E205E10062060800FF30F0050330F10522
:101742002600131EA92B0630F035F10D890BA52BAF
:10175200AA2B71089200700891000800FA017A35EC
:101762005B3EF4238831653EE22388310318C02BA7
:10177200FD238831810741310318810ADB2B7A3539
:10178200653EF42388315B3EE22388310318D12B76
:10179200FD238831810200304131813B7F31DB2BD7
:1017A2007A355B3E8600013087007A35653E8F319F
:1017B2008C2788310530FA0A7A02031CB02B752275
:1017C20008008600403FF600413FF7007608043EDD
:1017D200F8000030773DF90075087902031D080012
:1017E200740878020800860001308700403FF40048
:1017F200413FF5007A3508007A35653E86000130B2
:1018020087000434D630840095308500E4308600A9
:101812000030870007309531D0258C3101308400AB
:1018220088308500D0308600013087001D30953128
:10183200D0258C31D830FB01FC01FD018400003041
:1018420085000C309531CA258C312030840001305E
:10185200850050309531CA258C31A030840001308A
:10186200850030309531CA258C3120308400023019
:10187200850030309531CA258C317E102000412CF4
:101882003C27973134278C318B170B1788278C31E3
:10189200DF278C3183278C3186278C31640020002E
:1018A2000C19632C22008E1C632C2100DF010530F1
:1018B2002000EF002630890B5C2CEF0B5C2C000023
:1018C20022008E1020000C1D732C22008E18732C07
:1018D2008530890B6A2C000022008E1492248C31F0
:1018E2002100DF012200D71C4F2CD710571C7D2C62
:1018F20088311E208C318B2C200C0339033A0319BA
:10190200201C8B2CD71D882CE9278C318B2C843101
:10191200D8248C312200571D4F2C96314E268C3103
:101922004F2C57180800683023002006031D0800BA
:10193200AC2E2200D719080094278C310430A20063
:10194200B7268C31003A031D080023002208031D2C
:10195200B42C22002010211CB12CDB268C31B82C97
:10196200CB268C31B82C220BB82C2200201422005A
:1019720057150330DA0087318B2F22002018080018
:1019820094278C310430A200B7268C31003A031D13
:10199200080023002208031DD32C22002110CB268D
:1019A2008C31B82C220BB82C22002114DB268C316E
:1019B200B82C2200211820180800A20194278C318B
:1019C2000D30A200B7268C31003A031D0800BB017E
:1019D2003B35A33E8600013087003B35B4278C316E
:1019E200B5000108B40003303502E93003193402AE
:1019F2000318032D3B35233EBA278C313B355B3E22
:101A0200BA278C310530BB0A3B02031CE92CC02FDC
:101A120021082206031D0F2D0130102D0030200059
:101A2200AA009A278C3103190800BC2C0430220228
:101A32000318080094278C310430A200B7268C3199
:101A4200003A031D0800230022082000AF00B7015E
:101A52000530A0002F0886313E268C312D3E3707F7
:101A6200AA008600013087000A30A000A1013735A4
:101A7200653E840001308500003FA200013FA300C3
:101A8200EC268C31200881000530B70A3702031C8E
:101A9200292DB82C2200D719080094278C31153033
:101AA200A200B7268C31003A031D08001230B000A4
:101AB200B601300836020318B82C3608413E8600BB
:101AC200013087003608B4278C318100B60A5A2DBE
:101AD2002200211C080094278C310430A200B72672
:101AE2008C3123002406031D08000530220203184E
:101AF200080022082000B9003935233EA3278C3183
:101B02002A07AC002B0803182B0AAD0003302D0264
:101B1200E83003192C020318A22D3935233E860022
:101B220023002308810741310318810A2000393537
:101B3200233E86000130870039355B3E8C278C318D
:101B4200082DC5278C31233E8600013087002A08E4
:101B5200C03F2B08C13FC5278C315B3E86002A0857
:101B6200C03F2B08C13F082D2200211C08009427EA
:101B72008C310430A200B7268C3123002406031DC9
:101B82000800053022020318080022082000BA00CB
:101B92003A35233EA3278C31AC00AD012B082D0230
:101BA200031DD52D2A082C020318E82DAE278C31EF
:101BB2002300230881024131031C81037F3120006D
:101BC200AE278C313A355B3E8C278C31082D3A3565
:101BD2008A31EF228C313A355B3E86000030C03FBD
:101BE200C13F082D2200201C08000D302000B1004A
:101BF200A030A0000130A1003108A200B7268C312C
:101C0200003A031D0800B801053038020318242EDB
:101C12003835A33E8600013087003835B4278C3131
:101C2200B3000108B20003303302E9300319320273
:101C32000318222E3835653E86003208C03F33082D
:101C4200C13FB80A052E8831CD202200D7150330B6
:101C5200D900080021082206031D312E0130322E40
:101C620000302000AA009A278C31031908002200B4
:101C7200D711D901080094278C310A30A200B72667
:101C82008C31003A031D0800230022082100D800ED
:101C9200230023082100D900230024082100DA00B0
:101CA200230025082100DB00230026082100DC0098
:101CB200230027082100DD00230028082100DE0080
:101CC20006302200A0043A278C31BC2C21082206BF
:101CD200031D6D2E01306E2E00302000AA009A27BF
:101CE2008C3103190800220057140330D800080071
:101CF20094278C310530A200B7268C31003A031D9F
:101D020008001F3031009200FF309100943095009E
:101D120055309600AA30960095140000000031005C
:101D22009518902E1511A0302000A1000130A200BC
:101D32000530A30011278C3102302000AB00F330B4
:101D4200AA00B030890BA32EAA0BA32EAB0BA32E95
:101D5200000001000800210884001030040203186A
:101D6200080087310435DF3E82000800A501A60184
:101D7200220826020318C92E2608A300A401200760
:101D820086002408213D87000108A506A60AB92E6F
:101D9200250808002000A00120355B3E86000130A6
:101DA20087000030C03FC13F0530A00A200203185F
:101DB2000800CD2E2000A0012035233E86000130F0
:101DC200870020355B3E8C278C310530A00A20022B
:101DD20003180800DD2EA401A5012008210403191F
:101DE2000C2FA601A60AA11BF92EA035A10DF32ED8
:101DF200A435A50D21082302031D012F200822026C
:101E0200031C082F2008A2022108A33B2414A13698
:101E1200A00CA60BF92E2508A1002408A00008009A
:101E220022008E1005302000A4002630890B172FC7
:101E3200A40B172F00002000A303230A03192D2F40
:101E42002108860022088700010833278C312000F0
:101E5200A10A0319A20A1C2F23009E1C2D2F220067
:101E62008E140800A000111E342F200823009A00AF
:101E720008008B31492B9531FF258C3150278C314D
:101E82005A278C3164278C316D278C3178278C311D
:101E9200CB278C31D5279531DD258C31F02F603061
:101EA200320099009B0148309D0006309F009E0140
:101EB20008008F3025009300920191011F08FC3920
:101EC20001389F0008008F309700960195011F0886
:101ED200F33904389F0008008F30260093009201E6
:101EE200910125001F08CF3910389F0008008F305C
:101EF200260097009601950125001F083F394038BA
:101F02009F0008002000971708001F150800843161
:101F12001D2488315F28840001308500403F803FC6
:101F2200413F813F0800A0302000A0000130A10005
:101F32000800AB01230020062000AC002B08AD00F6
:101F42002C040800860001308700403FAA00413F70
:101F5200AB0023002308200008003A35233E860008
:101F6200013087000800A23E84000130850000088D
:101F7200080086003408C03F3508C13F080022002F
:101F820057150330DA000800E830AA000330AB002E
:101F9200393508002C00980197011F08FC390138D7
:101FA2009F00803099000800783020009F00F930AF
:101FB2009E009D0191102100911408002100DE0174
:101FC200DD01DC01DB010130DA00D900D8010800B3
:101FD2005908031DD90359080319D7110800911292
:101FE2001112083023009F0090309D0024309E0083
:0E1FF200A0309B0001309C00210091160800D9
:102B9400640080010131890BCB2D0034FE0012004A
:102BA4001E00FE0BD12D0034413454342B344F34E9
:102BB4004B340D340A3420009701D7309800FF308D
:102BC40096009501901221009016080023001D190B
:102BD400ED2D9D1CEF2D9D139D1721005F08A03E38
:102BE4008600013087002300190881002100DF0AD4
:102BF40030305F020318DF010800023022008C002D
:102C0400D0308D008E01343021008C008D010530D0
:102C14008E0023008E018D018C0124008D0104306F
:102C24008C008E0125008C018D018E0100308B1BE0
:102C340001302000A0008B13482695310F10240882
:102C4400E0391238A4003D001C08E03914389C0017
:102C54002508E0390C38A5002408E0390D38A40013
:102C64002308E0390E38A3002608E0390F38A600FF
:102C74002708E0390238A700482695310F142000B0
:102C8400201C462E8B1708008B13080055303C007F
:102C94008F00AA308F0008005A08031DDA035A086F
:102CA400031D080020308600013087002B3084008B
:102CB4000030850037302000E30016001A00E30BD3
:102CC4005F2E10306826220057110800E2002B30D6
:102CD400A6003730A70062086F2EA900AA012708B2
:102CE4002A02031808002A082607A800860087017C
:102CF4000108A40029082A0782269631AA0A712EFF
:102D0400A500A0007030A101A1072408A2008A2E0A
:102D140000308B1B0130A3002108310092002000F9
:102D2400200831009100200022083100930015177B
:102D340015158B1355309600AA30960095149518E6
:102D4400A12E15112000230C031C8B1303188B17C1
:102D540008002100DE0A3C305E02031CF02EDE0176
:102D6400DD0A3C305D02031CF02EDD01DC0A183064
:102D74005C02031CF02EDC01DA0ADB0A07305B027A
:102D84000318DB015808F500D030F601F5070730C9
:102D9400F63DF3269631003A0319D22E1D30D32E78
:102DA4001C302300E2000D30210059020318F02EDC
:102DB40059080319F02E5908E03E860001308700B7
:102DC4005A0801020318F02E0130DA00D90A0D3036
:102DD4005902031CF02E0130D900D80A2200D7145E
:102DE400080075080339031900346430F000F10158
:102DF4002F2796310F27963170087104031D013473
:102E04009030F0000130F1002F2796310F279631D2
:102E14007008710403190134003470087104031933
:102E24002A2FF401F40AF11B1A2FF035F10D142F97
:102E340071087302031D202F70087202031C262FD1
:102E44007008F2027108F33BF136F00CF40B1A2F00
:102E54007308F1007208F00008007608F3007508A2
:102E6400F200080022008E108D1268302000C1008C
:102E7400E430890B3B2FC10B3B2F000022008D1641
:102E840005302000C200DF30C100BB30890B482F61
:102E9400C10B482FC20B482F0032CA279731003A82
:102EA400031D642F68302000C100E430890B582FC3
:102EB400C10B582F000000302000A1009830A20060
:102EC4009027973168302000C100E430890B682FC7
:102ED400C10B682F000044302000A1009830A200EC
:102EE4009027973168302000C100E430890B782F97
:102EF400C10B782F000035302000A1009830A200CB
:102F04009027973168302000C100E430890B882F66
:102F1400C10B882F000022008E140800E4308600C4
:102F24000030870024308400003085000730A3007F
:102F340016001A00A30B9A2FAC01230019082000D5
:102F4400210884002208850012000319C52F2108D6
:102F540084002208850000088F3133279731200030
:102F6400A10A0319A20AA12FF62797312000AB006A
:102F74002C08243E8600870101082B06031DC42F5C
:102F8400AC0AC52FAC0107302C0203180800B62F79
:102F9400D0308600013087002E3084000030850058
:102FA40011302000AD0016001A00AD0BD52F2230D1
:102FB400C001A1009830A2009027973140082E3E0E
:102FC4008600870101080319F02FF62797312000A6
:102FD400BF002E06031D0034C00AE02FF6279731E8
:102FE4000A3A03190134F02F2000911EF62F230012
:102FF4009D1CFE2F1D121D1619080800413454345F
:103004002B344134443456345F344D3446345234D2
:103014005F345334503443343D34333430343334F4
:10302400313433343334333432343334303433346A
:10303400313433343034333432340D340A340034DC
:10304400413454342B344134443456345F344D3495
:10305400463452345F345334503443343D343F3473
:103064000D340A340034413454342B344D344F3449
:10307400443445343D3444344134543441340D34BF
:103084000A340034413454342B34533445345434E6
:0A3094003D3431340D340A340034A9
:023FFE00553F2D
:020000040001F9
:08000E00ECDFFDF7FEFFFFFF30
:00000001FF
