:0408000084311B2CF8
:100808007E1484312000911E0D2C9531C42584312D
:10081800192C901E142C9012963188268431192C8C
:10082800911C192C9110853171257E1009008C318D
:10083800032C2100600803192D2CE0013024843199
:1008480022005808031DD8035808031D0800571034
:100858006A2CE001E00A482C2000A001A101302503
:1008680084312000A001A101F72484312000A001D7
:10087800A101072584312000A001A1014025843170
:100888002000A001A101172DE8302000A0000330AE
:10089800A10030258431E8302000A0000330A100F9
:1008A800F7248431E8302000A0000330A100072598
:1008B8008431E8302000A0000330A10040258431B5
:1008C800E8302000A0000330A100172D200C0339C8
:1008D8002000A50003197A2C013A03197E2C033A4B
:1008E8000319832C013A0319882C912C8E31CB26BD
:1008F80084312E2F9424843192248E31DB2EAA2425
:10090800843193248431812C8F313A278431201803
:1009180008002118812C8E31CB2E0800332F382F58
:100928002000A4012435233E0527843120002435E6
:10093800653E860022005308C03F5408C13F20008E
:100948000530A40A2402031C962CC62C2000A401FE
:10095800240BB92C2435FB26843120002435653E30
:100968008600220047278431BF2C2435E8268431AD
:1009780024351E27843120000530A40A2402031CD4
:10098800AC2CC62C220066082000A10022006508B5
:100998002000A000F7248431220068082000A1006C
:1009A800220067082000A0001725843122006A0869
:1009B8002000A100220069082000A000072584313A
:1009C80022006C082000A10022006B082000A00073
:1009D8003025843122006E082000A10022006D0815
:1009E8002000A000402DFF30A0050330A105250000
:1009F800171E052D06302000A035A10D890B002DEE
:100A0800612D2000612DFF30A0050330A1052600CF
:100A1800131E152D06302000A035A10D890B102DB1
:100A2800692D2000692DFF30A0050330A10521089C
:100A3800A3002008A200A336A20CA336A20C220809
:100A48002C00980020002008A200A20CA20C220C66
:100A5800C0392C0097000800FF30A0050330A1051D
:100A68002500131E3E2D06302000A035A10D890B50
:100A7800392D592D2000592DFF30A0050330A1052F
:100A88002600171E4E2D06302000A035A10D890B1B
:100A9800492D512D2000512D2E2F2108260096007A
:100AA8002000200826009500080021082500920053
:100AB8002000200825009100080021082500960044
:100AC8002000200825009500080021082600920033
:100AD800200020082600910008002100E30A63088E
:100AE8000339031D080063080F39031D832D5F2791
:100AF80084317C080319832D8F258431FC01220061
:100B0800571CD719080020180800200C0339033A8D
:100B1800031D0800A82F7C0BC92D2200F026843164
:100B2800200C0339F700BB2DF8017835E82684310D
:100B380078351E2784310530F80A7802031C992D70
:100B48006E268431932684313F2E412684315426E3
:100B58008431D22684313F2E552684319226843121
:100B6800DD2684313F2E9126843120143F2E7708CC
:100B7800003A0319982D013A0319A92D033A0319CC
:100B8800B02D013A0319B72D3F2E21307C06031DE5
:100B9800D62D5A278431013A0319AD2D033A03198A
:100BA800B42D3F2E41307C06031D3F2E5A27843139
:100BB800342E0A30D300D401F0268431571641264A
:100BC8008431542684313F2E571EFD2D53080A3E8A
:100BD800F5000030543D5627843103197502031877
:100BE800FA2D0A30D3070318D40A0B2E4C27843168
:100BF8000B2E003054021530031953020A30031C1F
:100C0800092ED3020030D43B0B2ED300D401412649
:100C180084313F2ED71E232E55080A3EF50000309A
:100C2800563D56278431031975020318202E0A30C1
:100C3800D5070318D60A312E51278431312E0030BA
:100C480056021530031955020A30031C2F2ED502FF
:100C58000030D63B312ED500D601552684313F2EA3
:100C68007708003A0319DD2D013A0319E82D033AF4
:100C780003190E2E3F2E8F31C62FF4017435233EF3
:100C8800052784317435653E86005308C03F5408F3
:100C9800C13F0530F40A7402031C422E6E26080078
:100CA800332FF401740B612E7435FB2684317435AF
:100CB800653E860047278431672E7435E8268431DF
:100CC80074351E2784310530F40A7402031C562E2D
:100CD8006E26080022006608F1006508F000A126CB
:100CE800843122006808F1006708F000BB268431CF
:100CF80022006A08F1006908F000AE26843122005B
:100D08006C08F1006B08F0009426843122006E080C
:100D1800F1006D08F00096270800422F382F2E2F7B
:100D2800FF30F0050330F1052500131EA02E063014
:100D3800F035F10D890B9C2E242FFF30F005033080
:100D4800F1052500171EAD2E0630F035F10D890B83
:100D5800A92E3D2FFF30F0050330F1052600131EA4
:100D6800BA2E0630F035F10D890BB62E292FFF303B
:100D7800F0050330F1057108F3007008F200F3364E
:100D8800F20CF336F20C72082C0098007008F2008E
:100D9800F20CF20C720CC0399700080003302200E4
:100DA8005402213003195302031CDC2E5712080089
:100DB8000E2F033022005602213003195502031C5E
:100DC800E72ED7120800162F233E86000130870031
:100DD8000030C03FC13F0800200C0339F500F50A78
:100DE800F50D20087506F9397506A0000800233EA0
:100DF80086000130870022005508C03F5608C13FD1
:100E0800080086000130870022005308C03F5408BC
:100E1800C13F080000305402C83003195302031CB4
:100E28005716080000305602C83003195502031C33
:100E3800D7160800653E86000030C03FC13F080055
:100E480071089200700891000800710892007008FB
:100E58009100080022000D138C148D170800220041
:100E68000D138C108D13080022000D178C148D1390
:100E780008007108960070089500080022000D17F8
:100E88008C108D1708005508C03F5608C13F080050
:100E98000330D400E830D30008000330D600E8302F
:100EA800D5000800F60003307602E8342200200C52
:100EB8000339F700080088278431F1007108031905
:100EC800742F71087D06031D842F1A30FB0A7B02DC
:100ED800031C852F1930FB0071084038FC00852F52
:100EE8007D080319842F19307B02031C7E2F7D088F
:100EF8002038832F03307B02031C842F7D08FC00DD
:100F0800FB017108FD00080020000E09F000013007
:100F1800F005700821006106E2007008E205E100B2
:100F280062060800FF30F0050330F1052600171EA1
:100F3800A22F0630F035F10D890B9E2FA32F7108D3
:100F48009600700895000800FA017A355B3EED2797
:100F58008431653EDB2784310318B92FF6278431A5
:100F6800810741310318810AD42F7A35653EED2770
:100F780084315B3EDB2784310318CA2FF62784317E
:100F8800810200304131813B7F31D42F7A355B3E7D
:100F98008600013087007A35653E8F31922784318B
:100FA8000530FA0A7A02031CA92F6E26080086006B
:100FB800403FF600413FF7007608043EF800003055
:100FC800773DF90075087902031D08007408780256
:100FD8000800860001308700403FF400413FF500DB
:100FE8007A3508007A35653E86000130870004347A
:101000008E31792E8E31B62E8C319A2C8C31BE2CAD
:101010008C31DA2C8D31092D8D31172D8D314B2DE1
:101020008D31692D8D31B52D8E31B62E8D31F32D4B
:101030008E312B2E8E31B62E8E313C2E8E31672E78
:101048003334303433343134333433343334333465
:101058003334303433343134333430343334323459
:1010680000341F341C341F341E341F341E341F3404
:101078001F341E341F341E341F341030D2228831DE
:101088002930860000308700203084000130850038
:101098003730E10016001A00E10B4E280730220015
:1010A800A0050130A1052000E4016435233E860037
:1010B80001308700403FE100413FE2000330620217
:1010C800E93003196102031C7428E830E100033099
:1010D800E2006435233E86006108C03F6208C13FD4
:1010E800E3010530A0006308622288312D3E6407C1
:1010F800E100A4238831031C8E280530A000630872
:10110800622288312D3E6407E100860001308700A5
:10111800643081000430E30A6302031C7528640804
:10112800453EA42388316408031C9F28453E860059
:101138006430810064084E3EA4238831031CA9282A
:1011480064084E3E8600643081000530E40A64027B
:10115800031C59281830220041020318C1013C30F1
:1011680042020318C201183043020318C3013C307D
:1011780044020318C40118304A020318CA013C305B
:101188004B020318CB0118304C020318CC013C3039
:101198004D020318CD0103305402E93003195302FC
:1011A800031CDA2887314C278831E42800305402A0
:1011B8000A30031953020318E4280A30D300D40173
:1011C8000823883103305602E93003195502031CFD
:1011D800F128873151278831FB28003056020A3020
:1011E800031955020318FB280A30D500D601212B14
:1011F80021005C08482388314D2288312408EA0000
:101208002308E90021005D082000E9070318EA0A1D
:1012180021005E082000E5002200410848238831AB
:101228004D2288312408D7002308D600220042081E
:101238002000D6070318D70A220044082000B90066
:10124800BA0122004308482388314D228831672398
:101258008831D8003C08D90022004B082000B9008A
:10126800BA0122004A08482388314D228831672371
:101278008831DA003C08DB0022004D082000B90064
:10128800BA0122004C08482388314D22883167234F
:101298008831DC003C08DD00EE016E08423E860025
:1012A80087016E084E3EFD2388316E08053E8A236D
:1012B80088310A3E8A2388310F3E423E86006E08F6
:1012C8004E3E8400000881000530EE0A6E02031CC1
:1012D8005129EE016E08013EE6000330E6056E3541
:1012E800563E86008701403FEB00413FEC006635E3
:1012F800563E8600403FE700413FE8006C08680220
:10130800031D88296B0867026C08031CA3296A025D
:10131800031D90296B086902031C462A68086A02A3
:10132800031D9829670869020318462A68089C2340
:1013380088316B086902A0006C086A3BCC296A02F4
:10134800031DA8296B08690268080318B3296A02F3
:10135800031DB029670869020318462A68089C23F8
:101368008831A030DF070530E03D6C086A02031DB4
:10137800BF296B0869026B0803189E296902B90026
:101388006C086A3BBA003908A03EA00005303A3D17
:10139800A1003C30A201A301A400A501A601A70158
:1013A8006E2288312308E4002208E3002108E200C5
:1013B8002008E1006508E10701300318E207031877
:1013C800E3070318E407ED010530A0006608622270
:1013D80088316F2388316E086222883177238831FB
:1013E8000530A000031C1C2A6608622288316F237E
:1013F80088316E086222883177238831AA238831A0
:10140800622288315B2388314D2288314F2388310D
:101418004D2288312C2388316E22883193238831DC
:10142800932288312C083A07C0002D083B3D3F2AFB
:101438006E08622288316F238831660862228831FB
:1014480077238831AA238831622288315B23883147
:101458004D2288314F2388314D2288312C23883101
:101468006E22883193238831932288312C083A02DE
:10147800C0002D083B3B7F2388310530ED0A6D0203
:10148800031CE8290430EE0A6E02031C6E2984311D
:10149800C62CA701A801231C552A2508A70726083A
:1014A800A83DA535A60DA436A30C23082404031DC6
:1014B8004F2A2808A4002708A3000800A200A101B9
:1014C80020082218A107A035A2362208031D642A85
:1014D80021080800A801A901AA01AB01201C7C2A47
:1014E8002408A8072508A93D2608AA3D2708AB3DDA
:1014F800A435A50DA60DA70DA336A20CA10CA00C12
:101508002308220421042004031D722A2B08A300A7
:101518002A08A2002908A1002808A0000800B40190
:10152800B501B601B7012F082E042D042C040319A8
:10153800C92AB801B80AAF1BA62AAC35AD0DAE0D45
:10154800AF0D9E2AB435B50DB60DB70D2F08330271
:10155800031DB82A2E083202031DB82A2D083102AD
:10156800031DB82A2C083002031CC32A2C08B00219
:101578002D08B13B2E08B23B2F08B33B3414AF36CD
:10158800AE0CAD0CAC0CB80BA62A3708AF00360869
:10159800AE003508AD003408AC0008002100A000FA
:1015A800A1302000A4003730A50021002008EC223B
:1015B8008831A1308600003087002930840000304F
:1015C80085003730E00016001A00E00BE72A080013
:1015D8002000A700A80125082802031808002808E9
:1015E8002407A6008600870127082807FF228831DC
:1015F8008100A80AEF2AA200A0007030A101A1076B
:1016080013232000A30008000330540221300319DB
:101618005302031C112B5712080087310E2F210883
:101628003100920020002008310091001517151490
:101638000000000031001308080003305602213072
:1016480003195502031C2A2BD71208008731162FBD
:101658002308BC002408BD00BE01BF013F08AF003D
:101668003E08AE003D08AD003C08AC005E08A00096
:10167800A101A201A3016408A7006308A6006208EB
:10168800A5006108A40008002000A3003C30A401C4
:10169800A500A60108002308BA002408BB000630EC
:1016A800A500A6016008A4005F08A3000800423E48
:1016B8006D07B900860087010108A3000A30A4015C
:1016C800A500A601080039082307BB003A08243DF5
:1016D800BC003B080800423E6D07B9008600053093
:1016E8008701A0000800423E6D07BA00840085010A
:1016F800000801020800C1006D35653E8600013012
:1017080087004008C03F4108C13F0800423E8600AC
:101718006E08453E8400000881006E080800230812
:10172800B3002208B2002108B1002008B000080068
:10173800E0006708DF006B08DF026C08E03B080088
:10174800860001308700653001020800DE000530A0
:10175800A0006E08080068302400A0000530A10031
:1017680000302200201801302400A2002200201C92
:10177800D02B12302000A800A9012808290203183C
:10178800E32B2908233E8600023087002908413EC2
:10179800FD238831A90AC12B20302000A800A90107
:1017A800280829020318E32B2908233E8600023063
:1017B80087002908213EFD238831A90AD42B20302F
:1017C800A0000230A1002808033EA2008E31B726EF
:1017D800A7002808233E86000230870027088100DA
:1017E8002030A1000230A2002808043EA3008F3157
:1017F800112F840001308500000881000800B230F4
:10180800840095308500E43086000030870007307A
:101818009531AC258C312430840088308500D03057
:101828008600013087001D309531AC258C31D830C9
:10183800FB01FC01FD018400003085000C3095316E
:10184800A6258C3120308400013085005030953138
:10185800A6258C31A03084000130850030309531C8
:10186800A6258C3120308400023085003030953137
:10187800A6258C317E102000412C3C27973111275A
:101888008C318B170B1788278C31DF278C318327F6
:101898008C3186278C31640020000C19632C2200BF
:1018A8008E1C632C2100DF0105302000EF0026305C
:1018B800890B5C2CEF0B5C2C000022008E102000A2
:1018C8000C1D732C22008E18732C8530890B6A2C02
:1018D800000022008E1492248C312100DF012200A6
:1018E800D71C4F2CD710571C7D2C84311D248C31CC
:1018F8008B2C200C0339033A0319201C8B2CD71D81
:10190800882CE9278C318B2C8831FC208C312200E3
:10191800571D4F2C96312B268C314F2C5718080009
:10192800683023002006031D0800AC2E2200D719BA
:1019380008008C278C310430A200B7268C31003A7D
:10194800031D080023002208031DB42C22002010C8
:10195800211CB12CDB268C31B82CCB268C31B82C31
:10196800220BB82C22002014220057150330DA006D
:101978008B31AF2B2200201808008C278C310430C3
:10198800A200B7268C31003A031D08002300220864
:10199800031DD32C22002110CB268C31B82C220B0E
:1019A800B82C22002114DB268C31B82C22002118F7
:1019B80020180800A2018C278C310D30A200B72610
:1019C8008C31003A031D0800BB013B35A33E86005D
:1019D800013087003B35B4278C31B5000108B400CD
:1019E80003303502E930031934020318032D3B355F
:1019F800233EC0278C313B355B3EC0278C310530F8
:101A0800BB0A3B02031CE92CC62F21082206031D32
:101A18000F2D0130102D00302000AA009A278C319C
:101A280003190800BC2C04302202031808008C2774
:101A38008C310430A200B7268C31003A031D08000F
:101A4800230022082000AF00B7010530A0002F08AE
:101A58008A3162228C312D3E3707AA008600013078
:101A680087000A30A000A1013735653E84000130A7
:101A78008500003FA200013FA300EC268C3120081E
:101A880081000530B70A3702031C292DB82C220023
:101A9800D71908008C278C311530A200B7268C3155
:101AA800003A031D08001230B000B60130083602B3
:101AB8000318B82C3608413E8600013087003608E6
:101AC800B4278C318100B60A5A2D2200211C080047
:101AD8008C278C310430A200B7268C3123002406D1
:101AE800031D080005302202031808002208200000
:101AF800B9003935233EA3278C312A07AC002B08BF
:101B080003182B0AAD0003302D02E83003192C020C
:101B18000318A22D3935233E8600230023088107A8
:101B280041310318810A20003935233E86000130EF
:101B3800870039355B3E92278C31082DBA278C31C6
:101B4800233E8600013087002A08C03F2B08C13F8A
:101B5800BA278C315B3E86002A08C03F2B08C13F5C
:101B6800082D2200211C08008C278C310430A2008B
:101B7800B7268C3123002406031D080005302202F5
:101B88000318080022082000BA003A35233EA3278C
:101B98008C31AC00AD012B082D02031DD52D2A0870
:101BA8002C020318E82DAE278C312300230881026C
:101BB8004131031C81037F312000AE278C313A3537
:101BC8005B3E92278C31082D3A358631E8268C31D8
:101BD8003A355B3E86000030C03FC13F082D2200E9
:101BE800201C08000D302000B100A030A0000130FA
:101BF800A1003108A200B7268C31003A031D080065
:101C0800B801053038020318242E3835A33E860063
:101C1800013087003835B4278C31B3000108B20091
:101C280003303302E930031932020318222E383503
:101C3800653E86003208C03F3308C13FB80A052E0A
:101C48008431C6242200D7150330D90008002108A2
:101C58002206031D312E0130322E00302000AA004A
:101C68009A278C31031908002200D711D9010800DE
:101C78008C278C310A30A200B7268C31003A031D1C
:101C88000800230022082100D8002300230821008F
:101C9800D900230024082100DA00230025082100A8
:101CA800DB00230026082100DC0023002708210090
:101CB800DD00230028082100DE0006302200A004F1
:101CC8003A278C31BC2C21082206031D6D2E0130C9
:101CD8006E2E00302000AA009A278C3103190800C4
:101CE800220057140330D80008008C278C310530A7
:101CF800A200B7268C31003A031D08001F303100BE
:101D08009200FF3091009430950055309600AA302B
:101D1800960095140000000031009518902E1511BA
:101D2800A0302000A1000130A2000530A300112737
:101D38008C3102302000AB00F330AA00B030890BA0
:101D4800A32EAA0BA32EAB0BA32E000001000800A4
:101D58002108840010300402031808008831043573
:101D6800003E82000800A501A601220826020318E9
:101D7800C92E2608A300A401200786002408213DB7
:101D880087000108A506A60AB92E25080800200024
:101D9800A00120355B3E8600013087000030C03F3F
:101DA800C13F0530A00A200203180800CD2E2000EC
:101DB800A0012035233E86000130870020355B3E98
:101DC80092278C310530A00A200203180800DD2E66
:101DD800A401A5012008210403190C2FA601A60AB5
:101DE800A11BF92EA035A10DF32EA435A50D2108B0
:101DF8002302031D012F20082202031C082F20089C
:101E0800A2022108A33B2414A136A00CA60BF92E8C
:101E18002508A1002408A000080022008E10053023
:101E28002000A4002630890B172FA40B172F0000C1
:101E38002000A303230A03192D2F21088600220856
:101E48008700010833278C312000A10A0319A20A50
:101E58001C2F23009E1C2D2F22008E140800A0008A
:101E6800111E342F200823009A0008008731422FC2
:101E78009531DB258C3150278C315A278C316427DA
:101E88008C316D278C3178278C31CB278C31D52735
:101E98009531B9258C31F02F6030320099009B01C3
:101EA80048309D0006309F009E0108008F302500B5
:101EB8009300920191011F08FC3901389F00080026
:101EC8008F309700960195011F08F33904389F0059
:101ED80008008F30260093009201910125001F0809
:101EE800CF3910389F0008008F30260097009601E0
:101EF800950125001F083F3940389F000800200041
:101F0800971708001F1508008831412084316A2C72
:101F1800A0302000A0000130A1000800840001309A
:101F28008500403F803F413F813F0800AB012300CF
:101F380020062000AC002B08AD002C040800860009
:101F480001308700403FAA00413FAB00230023082F
:101F5800200008003A35233E86000130870008003B
:101F6800A23E84000130850000080800E830AA007D
:101F78000330AB003935080086003408C03F350807
:101F8800C13F0800220057150330DA0008002C0072
:101F9800980197011F08FC3901389F00803099008B
:101FA8000800783020009F00F9309E009D019110B4
:101FB8002100911408002100DE01DD01DC01DB01B4
:101FC8000130DA00D900D80108005908031DD903E7
:101FD80059080319D711080091121112083023006B
:101FE8009F0090309D0024309E00A0309B0001305F
:081FF8009C0021009116080075
:102B4C00640080010131890BA72D0034FE001200B6
:102B5C001E00FE0BAD2D0034413454342B344F3455
:102B6C004B340D340A3420009701D7309800FF30D5
:102B7C0096009501901221009016080023001D1953
:102B8C00C92D9D1CCB2D9D139D1721005F08A03EC8
:102B9C008600013087002300190881002100DF0A1C
:102BAC0030305F020318DF010800023022008C0075
:102BBC00D0308D008E01343021008C008D01053019
:102BCC008E0023008E018D018C0124008D010430B8
:102BDC008C0001308E0025008C018D018E0100309F
:102BEC008B1B01302000A0008B13252695310F1074
:102BFC002408E0391238A4003D001C08E0391438D0
:102C0C009C002508E0390C38A5002408E0390D3863
:102C1C00A4002308E0390E38A3002608E0390F3849
:102C2C00A6002708E0390238A700252695310F1495
:102C3C002000201C232E8B1708008B130800553006
:102C4C003C008F00AA308F0008005A08031DDA03DD
:102C5C005A08031D080020308600013087002B30F5
:102C6C0084000030850037302000E30016001A0085
:102C7C00E30B3C2E10304526220057110800E200D1
:102C8C002B30A6003730A70062084C2EA900AA01F1
:102C9C0027082A02031808002A082607A80086001D
:102CAC0087010108A40029082A075F269631AA0A81
:102CBC004E2EA500A0007030A101A1072408A2008F
:102CCC00672E00308B1B0130A300210831009200CD
:102CDC0020002008310091002000220831009300D0
:102CEC00151715158B1355309600AA3096009514B0
:102CFC0095187E2E15112000230C031C8B13031822
:102D0C008B1708002100DE0A3C305E02031CCD2E1E
:102D1C00DE01DD0A3C305D02031CCD2EDD01DC0A38
:102D2C0018305C02031CCD2EDC01DA0ADB0A0730FA
:102D3C005B020318DB015808F500D030F601F507EB
:102D4C000730F63DD0269631003A0319AF2E1D30D0
:102D5C00B02E1C302300E2000D3021005902031864
:102D6C00CD2E59080319CD2E5908E03E86000130AE
:102D7C0087005A0801020318CD2E0130DA00D90A57
:102D8C000D305902031CCD2E0130D900D80A220077
:102D9C00D714080075080339031900346430F000A7
:102DAC00F1010C279631EC26963170087104031D45
:102DBC0001349030F0000130F1000C279631EC26F4
:102DCC0096317008710403190134003470087104D1
:102DDC000319072FF401F40AF11BF72EF035F10D4E
:102DEC00F12E71087302031DFD2E70087202031C74
:102DFC00032F7008F2027108F33BF136F00CF40B60
:102E0C00F72E7308F1007208F00008007608F30042
:102E1C007508F200080022008E108D126830200018
:102E2C00C500E430890B182FC50B182F00002200A9
:102E3C008D1605302000C600DF30C500BB30890B75
:102E4C00252FC50B252FC60B252F0032BE279731FA
:102E5C00003A031D412FD0302000C500C930890B2A
:102E6C00352FC50B352F003200302000A1009830D3
:102E7C00A2006D279731D0302000C500C930890BD6
:102E8C00452FC50B452F003244302000A10098304F
:102E9C00A2006D279731D0302000C500C930890BB6
:102EAC00552FC50B552F003235302000A10098301E
:102EBC00A2006D27973168302000C500E430890BE3
:102ECC00652FC50B652F000022008E140800E4301E
:102EDC0086000030870024308400003085000730E5
:102EEC00A30016001A00A30B772FAE01AB01AC01A7
:102EFC0023001908200021088400220885001200F4
:102F0C000319B92F210884002208850000088F318D
:102F1C00332797312000A10A0319A20A802F911E92
:102F2C00AA2F23009D1C9C2F1D121D161908200072
:102F3C00AD002E08243E8600870101082D06031DD6
:102F4C00A92FAE0AAA2FAE018530890BAB2F00003A
:102F5C002000AB0A0319AC0A03302C02E930031928
:102F6C002B020318080007302E0203180800952FB7
:102F7C00D03086000130870030308400003085006E
:102F8C0011302000AF0016001A00AF0BC92F2230F1
:102F9C00C401C101C201A1009830A2006D27973174
:102FAC00FA27973103190134911EEA2F23009D1C37
:102FBC00E12F1D121D1619082000C300FA279731A6
:102FCC004306031D0034C40A8530890BEB2F000027
:102FDC002000C10A0319C20A03304202E930031966
:102FEC00410203180034D62F4408303E8600870176
:102FFC0001080800413454342B34413444345634E1
:10300C005F344D34463452345F345334503443348B
:10301C003D34333430343334313433343334333467
:10302C003334333430343334313433343034333464
:10303C0032340D340A340034413454342B3441349A
:10304C00443456345F344D34463452345F34533444
:10305C00503443343D343F340D340A34003441345D
:10306C0054342B344D344F34443445343D3444348F
:10307C004134543441340D340A3400344134543422
:10308C002B345334453454343D3431340D340A34F8
:02309C000034FE
:023FFE00553F2D
:00000001FF
